:020000040000FA
:060000002EEF18F01200C3
:020006001200E6
:0600080037EF00F01200CA
:02000E001200DE
:02001000FEFFF1
:0600180022EF00F01200CF
:02001E000300DD
:100020003A31000013020000070000000031000018
:10003000A60000003A00000010000000FC000000D4
:0400400002000000BA
:0C004400D8CFE4FFE0CFE4FFE46EDACF99
:10005000E4FFE2CFDAFFE652F0B2F092E552E5CFEC
:10006000DAFFE550E5CFE0FFE5CFD8FF1000DACFAB
:10007000E4FFE2CFDAFFE9CFE4FFEACFE4FFF6CF17
:10008000E4FFF7CFE4FFF5CFE4FFF3CFE4FFF4CFD5
:10009000E4FFFACFE4FF00EE00F0140EE80403E3FF
:1000A000EECFE4FFFBD700EE14F0070EE80403E305
:1000B000EECFE4FFFBD7E652F2A421D0B30ED76E09
:1000C000D66AF2940201132B000E14230001B351DF
:1000D00005E1010EB06F050EB36F01D0B307B45147
:1000E00005E1010EB26F320EB46F01D0B407B55105
:1000F00005E1010EB16F640EB56F01D0B507F2A234
:100100000AD0F29282A004D0F19CDDEC13F003D06F
:10011000F18CF6EC13F0F2B2F292E55200EE1AF026
:10012000070EE80403E3E5CFEDFFFBD700EE13F085
:10013000140EE80403E3E5CFEDFFFBD7E5CFFAFFAC
:10014000E5CFF4FFE5CFF3FFE5CFF5FFE5CFF7FF10
:10015000E5CFF6FFE5CFEAFFE5CFE9FFE5CFDAFF30
:1001600011000001E9510001F35D06E10001E851D1
:100170000001F25D010808E00001E9510001F35DB2
:10018000010855E1F25153E10001EA510001F45D2B
:100190004EE10001EB510001F55D49E10001EC5138
:1001A0000001F65D44E10001ED510001F75D3FE122
:1001B000F751E66EE66AF651E66EE66AF551E66ECE
:1001C000E66AF451E66EE66AF251E66EE66AF351CB
:1001D000E66EE66A4E0E146E290E156E166A14C08F
:1001E000E6FF15C0E6FF16C0E6FF57EC16F0176EE7
:1001F0000F0EE15E1750F3C00DF2F2C00CF20201D7
:100200000B6B010E0A6FF5C00EF2F4C010F2F6C0CF
:100210000FF2F7C011F20A0EE66E020EE66EADECBA
:1002200010F0E552E5520201030E196F03D00201EE
:10023000020E196F0A0EE66EE66AF20EE66E000E08
:10024000E66EE80EE66E000EE66E90EC15F0146EAB
:10025000060EE15E14500201010E166F1200D9CF96
:10026000E6FFE1CFD9FFFE0EDBCF14F0156A14BE16
:100270001568BAC0E9FFBBC0EAFF010ED890E936A5
:10028000EA36E806FBE1600EE926000EEA2214C019
:10029000EEFF15C0EDFF00011D0EBA1901E1BB51C3
:1002A00009E1000ED880B855000EB95502E2BA6BCC
:1002B000BB6B11D0B8C014F0B9C015F01406000E15
:1002C000155A1450BA1902E11550BB1901E103D0B7
:1002D000BA2B000EBB23E552E7CFD9FF1200000175
:1002E000BA51B81902E1BB51B91903E1F36AF46AD2
:1002F00025D0BA51B85DBB51B9590CE2B851BA5DBD
:10030000146EBB51B955156E14C0F3FF15C0F4FF40
:1003100015D014D0B8C016F0B9C017F01E0ED88092
:100320001656000E17561650BA25146E1750BB21DC
:10033000156E14C0F3FF15C0F4FF00D01200D9CF22
:10034000E6FFE1CFD9FFE652DF6A0001BA51B819E2
:1003500002E1BB51B9191CE0B8C0E9FFB9C0EAFF1E
:10036000010ED890E936EA36E806FBE1600EE92690
:10037000000EEA22EFCFDFFF00011D0EB81901E1E8
:10038000B95103E1B86BB96B03D0B82B000EB92398
:10039000DF5000D0E552E552E7CFD9FF1200D9CFA8
:1003A000E6FFE1CFD9FF060EE126300E8214E838D1
:1003B0000F0BDE6EDD6ADECF14F0DDCF15F000012D
:1003C000BC51141802E1BD51151801E17BD0DE507B
:1003D000BC190001146EDD500001BD190001156E3D
:1003E000020E14C0DBFF030E15C0DBFF040EDB6A38
:1003F000050EDB6A040EDBCF14F0050EDBCF15F023
:10040000020E145C000E155859E2010EF36E040E34
:10041000DB5004E0D890F336E806FCE1F350166EAA
:10042000176A16BE1768020EDB501614146E030E00
:10043000DB501714156E145015103AE0010EF36ED0
:10044000040EDB5004E0D890F336E806FCE1F350EC
:10045000166E176A16BE1768DE501614146EDD503D
:100460001714156E1450151012E0010EE76E040EED
:10047000DBCF14F0050EDBCF15F0E7501426000E8D
:100480001522200E1410E66EEADEE55211D0010EA0
:10049000E76E040EDBCF14F0050EDBCF15F0E7504E
:1004A0001426000E1522100E1410E66ED8DEE5524A
:1004B000040EDB2A050E01E3DB2A9CD7DECFBCF05D
:1004C000DDCFBDF0060EE15C02E2E16AE552E16ECD
:1004D000E552E7CFD9FF1200D9CFE6FFE1CFD9FF30
:1004E000FD0EDB50100B11E0480E146E290E156E38
:1004F000166A14C0E6FF15C0E6FF16C0E6FF57EC0B
:1005000016F0E552E552E55210D0410E146E290E58
:10051000156E166A14C0E6FF15C0E6FF16C0E6FFAA
:1005200057EC16F0E552E552E552FD0EDB50020B9A
:1005300011E03B0E146E290E156E166A14C0E6FF0C
:1005400015C0E6FF16C0E6FF57EC16F0E552E5527F
:10055000E55210D0360E146E290E156E166A14C0B0
:10056000E6FF15C0E6FF16C0E6FF57EC16F0E552B1
:10057000E552E552FD0EDB50100B01E1AAD0FD0E55
:10058000DB50020B32E00001060EAC1901E1AD5167
:100590000CE10A0EE66E020EE66EADEC10F0E552CE
:1005A000E5520001AC6BAD6B0AD0AC51AD1104E16A
:1005B000020EAC6FAD6B03D0AC2B000EAD23ACC004
:1005C000E6FFADC0E6FF280E146E290E156E166A02
:1005D00014C0E6FF15C0E6FF16C0E6FF57EC16F0A4
:1005E000176E050EE15E175074D0FD0EDB50010B47
:1005F00070E00001020EAC1901E1AD5108E13B0EC3
:1006000002010C5D02E10C6B01D00C2B4AD0030EF1
:10061000AC1901E1AD5108E1170E02010D5D02E1D7
:100620000D6B01D00D2B3DD0040EAC1901E1AD5185
:1006300009E11F0E02010E5D03E1010E0E6F01D0F4
:100640000E2B2FD0050EAC1901E1AD5109E10C0EB6
:1006500002010F5D03E1010E0F6F01D00F2B21D0BE
:10066000060EAC1901E1AD5108E1140E0201115D55
:1006700002E1116B01D0112B14D00A0EE66E020EAE
:10068000E66EADEC10F0E552E5520001030EAA193A
:1006900001E1AB5103E1AA6BAB6B03D0AA2B000EB7
:1006A000AB2302010C51E66EE66A0D51E66EE66A76
:1006B000170E146E290E156E166A14C0E6FF15C0CB
:1006C000E6FF16C0E6FF57EC16F0176E070EE15E68
:1006D0001750E552E7CFD9FF1200D9CFE6FFE1CF9F
:1006E000D9FF020EE126DE6ADD6ADECF14F0DDCF2F
:1006F00015F0D890155004E6080E145C000E15583D
:1007000030E2010EE76EFD0EDBCF14F0FE0EDBCF04
:1007100015F0E7501416156A1450E8B08286E8A068
:100720008296D950FD0FE96EFF0EDA20EA6E010EB7
:100730000F0B06E0EC52D890ED32EF32E806FAE10A
:10074000010EE66E65EC18F0E552808A010EE66E49
:1007500065EC18F0E552809ADF2A010E01E3DB2AEE
:10076000C4D7020EE15C02E2E16AE552E16EE552B5
:10077000E7CFD9FF12008088010EE66E65EC18F015
:10078000E55280981200A4C0E6FFA5C0E6FFA5DFF1
:10079000E552E552A2C0E6FFA3C0E6FF9EDFE552A8
:1007A000E552A0C0E6FFA1C0E6FF97DFE552E552A3
:1007B0009EC0E6FF9FC0E6FF90DFE552E552BBEF2B
:1007C00003F0D9CFE6FFE1CFD9FFFB0EDBCF06F078
:1007D000FC0EDBCF07F0FD0EDBCF08F0FE0EDBCF0B
:1007E00009F00A0E0B6E0C6A0D6A0E6A11EC15F018
:1007F00002C0E9FF03C0EAFFD890E936EA36BE0E30
:10080000E926000EEA22EECFA4F0EDCFA5F0FB0E14
:10081000DBCF06F0FC0EDBCF07F0FD0EDBCF08F0E0
:10082000FE0EDBCF09F00A0E0B6E0C6A0D6A0E6A23
:1008300011EC15F0FB0E06C0DBFFFC0E07C0DBFF62
:10084000FD0E08C0DBFFFE0E09C0DBFFFB0EDBCF99
:1008500006F0FC0EDBCF07F0FD0EDBCF08F0FE0E3E
:10086000DBCF09F00A0E0B6E0C6A0D6A0E6A11ECF2
:1008700015F002C0E9FF03C0EAFFD890E936EA3676
:10088000BE0EE926000EEA22EECFA2F0EDCFA3F0D5
:10089000FB0EDBCF06F0FC0EDBCF07F0FD0EDBCF4F
:1008A00008F0FE0EDBCF09F00A0E0B6E0C6A0D6A23
:1008B0000E6A11EC15F0FB0E06C0DBFFFC0E07C044
:1008C000DBFFFD0E08C0DBFFFE0E09C0DBFFFB0EE9
:1008D000DBCF06F0FC0EDBCF07F0FD0EDBCF08F020
:1008E000FE0EDBCF09F00A0E0B6E0C6A0D6A0E6A63
:1008F00011EC15F002C0E9FF03C0EAFFD890E93619
:10090000EA36BE0EE926000EEA22EECFA0F0EDCFC9
:10091000A1F0FB0EDBCF06F0FC0EDBCF07F0FD0EE7
:10092000DBCF08F0FE0EDBCF09F00A0E0B6E0C6A6F
:100930000D6A0E6A11EC15F0FB0E06C0DBFFFC0E13
:1009400007C0DBFFFD0E08C0DBFFFE0E09C0DBFFAA
:1009500000019E6B9F6BA28FE552E7CFD9FF12007B
:100960000A0E146E14C00EF00CC209F04AEC18F016
:100970000550E96EEA6AD890E936EA36BE0EE926F5
:10098000000EEA22EECFA4F0EDCFA5F00A0E146E11
:1009900014C00EF00CC209F04AEC18F00950E96ED0
:1009A000EA6AD890E936EA36BE0EE926000EEA2257
:1009B000EECFA2F0EDCFA3F00A0E146E14C00EF02D
:1009C0000DC209F04AEC18F00550E96EEA6AD890B9
:1009D000E936EA36BE0EE926000EEA22EECFA0F096
:1009E000EDCFA1F00A0E146E14C00EF00DC209F086
:1009F0004AEC18F00950E96EEA6AD890E936EA360E
:100A0000BE0EE926000EEA22EECF9EF0EDCF9FF05B
:100A10000001A08F12000A0E146E14C00EF00FC257
:100A200009F04AEC18F00550E96EEA6AD890E93608
:100A3000EA36BE0EE926000EEA22EECFA4F0EDCF94
:100A4000A5F00A0E146E14C00EF00FC209F04AECA5
:100A500018F00950E96EEA6AD890E936EA36BE0E17
:100A6000E926000EEA22EECFA2F0EDCFA3F00A0EA7
:100A7000146E14C00EF00EC209F04AEC18F00550C6
:100A8000E96EEA6AD890E936EA36BE0EE926000E2B
:100A9000EA22EECFA0F0EDCFA1F00A0E146E14C042
:100AA0000EF00EC209F04AEC18F00950E96EEA6A3D
:100AB000D890E936EA36BE0EE926000EEA22EECFDD
:100AC0009EF0EDCF9FF00001A08FA48F12000A0EC0
:100AD000146E14C00EF011C209F04AEC18F0055063
:100AE000E96EEA6AD890E936EA36BE0EE926000ECB
:100AF000EA22EECFA4F0EDCFA5F00A0E146E14C0DA
:100B00000EF011C209F04AEC18F00950E96EEA6AD9
:100B1000D890E936EA36BE0EE926000EEA22EECF7C
:100B2000A2F0EDCFA3F0BEC0A0F0BFC0A1F0C2C044
:100B30009EF0C3C09FF01200BEC09EF0BFC09FF0E9
:100B4000BEC0A0F0BFC0A1F0BEC0A2F0BFC0A3F065
:100B5000BEC0A4F0BFC0A5F01200700ED36E7E6AB6
:100B60007F6AC26A926A500E936EF50E946EF28A94
:100B7000F288F18CF292F088F188F09EF0921200E7
:100B8000D9CFE6FFE1CFD9FF020EE126DE6ADD6AAA
:100B9000E4DF8098809A190EE66EE66A3C0EE66EF7
:100BA000A3EC16F0E552E552E5529F0EE66EBFEC5F
:100BB00017F0E552E66A080EE66EDBEC17F0E55238
:100BC000E552270EC86ED08EF28EF28EF28C0201A4
:100BD0000C6B0D6B0E6B0F6B116BAEDFD4DDBDECD0
:100BE00011F0BEDE8282FB0E146E280E156E166AA0
:100BF00014C0E6FF15C0E6FF16C0E6FF57EC16F07E
:100C0000E552E552E5520001BA51B81902E1BB5173
:100C1000B91917E0B8C0E9FFB9C0EAFF010ED890D2
:100C2000E936EA36E806FBE1600EE926000EEA2224
:100C3000EECFE6FFEFCFE6FF4FDCE552E5529FEC4B
:100C400001F00201185109E0186B0001AC51AD111F
:100C500004E1B1EC00F084DE96DD0201175103E0FF
:100C6000176B8FEC13F00001B05167E0B06BCFEC65
:100C700001F082AE17D00001A851A91112E0A86BB3
:100C8000A96BDF0E146E280E156E166A14C0E6FFEF
:100C900015C0E6FF16C0E6FF57EC16F0E552E55228
:100CA000E55219D00001010EA81901E1A95113E084
:100CB000010EA86FA96BC10E146E280E156E166A70
:100CC00014C0E6FF15C0E6FF16C0E6FF57EC16F0AD
:100CD000E552E552E55282AC1AD00001020EA61987
:100CE00001E1A75113E0020EA66FA76BAC0E146EC4
:100CF000280E156E166A14C0E6FF15C0E6FF16C072
:100D0000E6FF57EC16F0E552E552E55216D0000129
:100D1000A651A71112E0A66BA76B960E146E280EB3
:100D2000156E166A14C0E6FF15C0E6FF16C0E6FF92
:100D300057EC16F0E552E552E5520001B25160E081
:100D4000B26BAC51AD115CE0020EAC1901E1AD51DA
:100D50000BE106DE0001DE51DF1105E10001A26BAF
:100D6000A36BA46BA56B3FD0030EAC1901E1AD5191
:100D70000BE1F6DD0001DE51DF1105E100019E6BA4
:100D80009F6BA06BA16B2FD0040EAC1901E1AD518C
:100D90000BE141DE0001DE51DF1105E100019E6B38
:100DA0009F6BA06BA16B1FD0050EAC1901E1AD517B
:100DB0000BE131DE0001DE51DF1105E10001A26B24
:100DC000A36BA46BA56B0FD0060EAC1901E1AD515E
:100DD0000AE17DDE0001DE51DF1105E10001A26BB9
:100DE000A36BA46BA56B0001DE51DF1102E0000EC6
:100DF00001D0010EDE6FDF6B800B01E0DF69C3DC29
:100E00000001B15101E18BD0B16BAC51AD1101E0EA
:100E100086D0030EAA1901E1AB511AE1A4EC0EF041
:100E2000F3CFAEF0F4CFAFF0AEC014F0AFC015F01A
:100E3000166A176A14C0E6FF15C0E6FF16C0E6FF83
:100E400017C0E6FFBEDCE552E552E552E5522AD076
:100E5000AA51AB110AE10A0EE66E020EE66E16EC1E
:100E60000FF0E552E5527CDD1DD0010EAA1901E11B
:100E7000AB510AE10A0EE66E020EE66E16EC0FF0BA
:100E8000E552E552C8DD0ED0020EAA1901E1AB51C0
:100E900009E10A0EE66E020EE66E16EC0FF0E55260
:100EA000E55215DE70DC0001A851A91138E1D9CF57
:100EB000E9FFDACFEAFFEE50ED102DE1030EAA199B
:100EC00001E1AB5103E1AA6BAB6B03D0AA2B000E7F
:100ED000AB23AA51AB1104E1080EDE6EDD6A1AD015
:100EE000010EAA1901E1AB5104E1020EDE6EDD6ACA
:100EF00011D0020EAA1901E1AB5104E1020EDE6E1F
:100F0000DD6A08D0030EAA1901E1AB5103E1020E1C
:100F1000DE6EDD6A04D0DF06010E01E2DB0673D669
:100F2000020EE15C02E2E16AE552E16EE552E7CFD2
:040F3000D9FF1200D3
:0C0F3400D6EC0CF0FB0EDBCFF3FFDB066D
:100F4000F35000090AE024EC0DF0FA0E8FEC0DF0DE
:100F5000F3E1151CF1E1010E01D0000E05EF0DF0DB
:100F6000D6EC0CF03B0EE12402E3E168E652E16EC0
:100F7000010EDB6A020EDB6AF90EDBCFF6FFFA0E1A
:100F8000DBCFF7FFFB0EDBCFF8FF0800F550DF6E7D
:100F9000DF5002E129EF0CF0250EDF5C02E01CEFD0
:100FA0000CF0030EDB6A040EDB6A050EDB6A060E2C
:100FB000DB6A070EDB6A3EEC0CF02D0EDF5C0CE00A
:100FC0002B0EDF5C09E0200EDF5C06E0230EDF5C09
:100FD00003E0300EDF5C1AE1DF50300A14E0130A40
:100FE0000FE0030A0AE00B0A05E0060AE4E1030E3B
:100FF000DB80E1D7030EDB82DED7030EDB84DBD799
:10100000030EDB86D8D7030EDB88D5D72A0EDF5C2C
:101010001BE13AEC0CF088EC0CF010E0030EDB80E6
:1010200008680968130EDBCF0DF0140EDBCF0EF04D
:1010300063EC15F0040E06C0DBFF03D0130E71EC59
:101040000CF03EEC0CF00BD0090EDB6ADFEC0CF080
:1010500003E053EC0DF0FAD7090E71EC0CF0030E1F
:10106000DBB0DB982E0EDF5C1BE13EEC0CF02A0EB1
:10107000DF5C0BE13AEC0CF088EC0CF003E1130EB2
:10108000C3EC0CF03EEC0CF00BD0090EDB6ADFEC8D
:101090000CF003E053EC0DF0FAD7090EC3EC0CF0A2
:1010A000680EDF5C07E13EEC0CF0680EDF5C1DE1D2
:1010B000030E18D0740EDF5C17E07A0EDF5C14E0CC
:1010C000480EDF5C06E0540EDF5C03E05A0EDF5C86
:1010D00002E1020E07D06C0EDF5C03E06A0EDF5CFB
:1010E00004E1010E16EC0DF0C9DBDF506E0A01E1E0
:1010F0007FD31E0A01E192D1200A01E18FD13F0A7C
:1011000001E149D11A0A01E146D10D0A01E143D1B9
:10111000200A01E140D13A0A01E13DD1200A01E172
:101120003AD1260A01E135D10D0A01E132D11A0A7C
:1011300001E1D9D0200A4AE0300A1FE0460A0EE059
:10114000250A01E083D3D950F90FE96EFF0EDA20AA
:10115000EA6E010EEE5E000EEE5AEE5A24EC0DF031
:10116000250EE66E95DB03E1151C01E169D320EC49
:101170000DF001E26BD3DB2A69D3080EDB6A040EA3
:10118000DB50010806E2040EDB04E8EC0CF0DB5057
:101190008BDB080EDB5009E0030EDB50010B05E191
:1011A00072DB01E04DD3080EDB6A64DBEFCFDFFFBB
:1011B00098EC0DF003E1151C01E142D320EC0DF099
:1011C00001E3DB2A60DB01E141D33AD3070EDB50B8
:1011D00002080FE164EC0DF0030E2BEC0DF00E0E87
:1011E000EECFDBFF0F0EEECFDBFF100EEECFDBFFFF
:1011F00020D0F70EDBCF17F0F80EDBCF18F0020E81
:10120000175E000E185AF70E17C0DBFFF80E18C055
:10121000DBFF17C0E9FF18C0EAFF1BEC0DF0166AF0
:101220000E0E14C0DBFF0F0E15C0DBFF100E16C034
:10123000DBFF0E0EDBCFE6FF0F0EDBCFE6FF100E5F
:10124000DBCFE6FFE3EC15F0E552E552E552130E75
:1012500007C0DBFF140E08C0DBFF060EDB5005E005
:10126000130E5FEC0DF001E26ADB83EC0DF002E29D
:10127000130E37DB46EC0DF006E0040E5FEC0DF0CC
:1012800002E2050E2EDB030EDBB005D0FCDA01E036
:10129000D7D2080EDB6A090EDB6A0E0EDBCFF6FF33
:1012A0000F0EDBCFF7FF100EDBCFF8FF0800F55075
:1012B000DF6EDF5014E089EC0DF011E298EC0DF0D8
:1012C00003E1151C01E1BCD2BBDB01E3DB2A090E03
:1012D000DB2AD9500E0FE96E000ECBDBE7D7D3DA4D
:1012E00001E1B4D2ADD2C6DA110EEECFDBFF120EA1
:1012F000EDCFDBFF110EDBCFE6FF120EDBCFE6FFFB
:10130000D5EC15F0E552E552130EF3CFDBFF140ECA
:10131000F4CFDBFF060EDB5004E0130ED0DB01E25E
:101320000EDB83EC0DF002E2130EDBDAAFDB05E03F
:10133000040EC5DB02E2050ED4DA030EDBB005D0E5
:10134000A2DA01E07DD2080EDB6A090EDB6A110E1B
:10135000DBCFE9FF120EDBCFEAFFEFCFDFFFDF507D
:1013600014E0D7DB12E2E4DB03E1151C01E168D2F3
:1013700067DB01E3DB2A090EDB2A110EDB2ADBCF58
:10138000E9FF120EE8E3DB2AE6D77DDA01E15ED25F
:1013900057D2030EDB8E070EDB0410E195DB040E43
:1013A0005ADB0A0EEECFDBFF0B0EEECFDBFF0C0E8F
:1013B000EECFDBFF0D0EEECFDBFF6CD0070EDB5068
:1013C00003082CE1030EDBAE0DD0B2DA020E76DAA2
:1013D000EFCF14F0156A166A176A14AE39D0156883
:1013E000166835D0F70EDBCF15F0F80EDBCF16F010
:1013F000020E155E000E165AF70E15C0DBFFF80E32
:1014000016C0DBFF15C0E9FF16C0EAFFEFCF14F0EE
:101410000A0E14C0DBFF0B0EDB6A38D0070EDB5060
:10142000020809E1030EDBAE04D059DB16AE10D082
:101430000ED055DB0DD0030EDBAE12D079DA020EE2
:101440003DDAF9DA166A176A15AE02D0166817681F
:10145000E2DA0C0E16C0DBFF0D0E17C0DBFF1AD050
:10146000F70EDBCF16F0F80EDBCF17F0020E165E8C
:10147000000E175AF70E16C0DBFFF80E17C0DBFF81
:1014800016C0E9FF17C0EAFFD6DAC5DA0C0EDB6A30
:101490000D0EDB6A060EDB5005E1010EF36E050E44
:1014A000F3CFDBFF150EDB6A160EDB6AD950370F60
:1014B000146E000EDA20156E390E14C0DBFF3A0EE2
:1014C00015C0DBFF380EDB6A080EDB6A0A0EAEDAE7
:1014D000DF50780A12E0200A10E0280A0CE0200A07
:1014E0000AE03F0A06E00D0A02E0200A08E1020EC7
:1014F00005D0080E03D0080EDF26100E97DA030E73
:10150000DBBE02D0DB92DB94DB50800B24E08ADA76
:10151000D890030EEB50000A08E6000EEE5C000EB9
:10152000EE58000EEE58000EEE5815E213DA0B6876
:101530000C680D680E6863EC17F00A0E02C0DBFF42
:101540000B0E03C0DBFF0C0E04C0DBFF0D0E05C04D
:10155000DBFF2D0E08D0030EDBA202D02B0E03D032
:10156000DBA408D0200EF36E170EF3CFDBFF150EB1
:10157000DB2A02D0170EDB6A050EDB5003E1B7D978
:1015800001E189D0E00E146E300E156E000E166E5D
:10159000070EDBCF17F0186A196A1A6A17C00BF02A
:1015A00018C00CF019C00DF01AC00EF0D3D99BEC86
:1015B00017F014500224F36E15500320F46E1650E9
:1015C0000420F86EF4CFF7FFF3CFF6FF0800090E02
:1015D000F5CFDBFF580EDF5C0FE1610EF36E090EF5
:1015E0007BD90AE3200E146E090EDBCFE7FF1450FF
:1015F000E75E090EE7CFDBFF070EDBCF14F0156ABD
:10160000166A176A0FDA14C00BF015C00CF016C07A
:101610000DF017C00EF0EECF06F0EECF07F0EECFD4
:1016200008F0EFCF09F09BEC17F009C0EDFF08C000
:10163000EDFF07C0EDFF06C0EFFF390EDBCFE9FF7E
:10164000DB063A0EDBCFEAFF01E2DB06090EDBCF59
:10165000EFFF150EDB2A4BD995E1030EDBA61DD05B
:101660006F0EDF5C06E1C1D918E3150EDB285BDAEB
:1016700014D0780EDF5C09E0580EDF5C06E0620EE5
:10168000DF5C03E0420EDF5C08E1020EF36E160E33
:10169000F3CFDBFF02D0150EDB6A030EDB50100B1D
:1016A0000EE0040EDBCF14F0050EDB50D88014548E
:1016B00006E2060EDB5003E1040EDB5034DA95D966
:1016C0000AE2050EDBCFE7FF150EDB50E75E050EE5
:1016D000E7CFDBFF02D0050EDB6A040EDBCF14F090
:1016E000160E45D9D880145414E2160EDBCFE6FF4F
:1016F000150EDBCFE6FF040EDBCFE6FF050EDB5059
:10170000E552E75CE552D880E754E552D880E754CB
:101710005FD9030EDB50010B0BE1080EDB5008E034
:10172000B2D801E08DD0080EDB50BED8080EDB6ABF
:10173000170EDB5007E088D9170EF1D903E1151C0D
:1017400001E17ED0160EDB5016E07ED9300EE66E3B
:101750009FD802E1151C74E077D9DFCFE6FFE8ECF3
:1017600016F0E552E552E552F4CF15F00001F31CF6
:1017700002E1151C65E0050EDBCF14F0160EDB5000
:10178000D880145409E2050EDBCFE7FF160EDB50BC
:10179000E75E050EE7CFDBFF300EE66E050ECBD918
:1017A0004FE1390EDB2ADBCFE9FF3A0E01E3DB2AFA
:1017B000DBCFEAFF090EEFCFDBFFDB500EE044D9B1
:1017C000090EADD902E1151C3BE0390EDB2ADBCF57
:1017D000E9FF3A0EEDE3DB2AEBD755D831E1160EDF
:1017E000DBCFE6FF080EC3D8E552E7245DD82ED044
:1017F000070EDB50030A1CE0010A14E0030A07E0AD
:101800007BD9DBCFEEFF020EDBCFEDFF1FD0F5D88B
:10181000196A17AE02D0186819682CD8BCD819C03C
:10182000EEFF14D0EAD817BE186824D8B4D80ED06A
:1018300063D9DBCFEFFF0AD07BD905E1151C03E1AB
:10184000F368F46810D0FCD801E3DB2A79D9C5EF3E
:1018500007F0010EDBCF14F0020EDBCF15F014C041
:10186000F3FF15C0F4FF3B0EE15C02E2E16AE552D2
:10187000E16ECBD029D9020E2BEF0DF061D9080013
:10188000F550DF6E1200200EE66E080E9BEF0DF095
:10189000E8EC16F0E552E552E552F3CF14F0F4CF40
:1018A00015F00001F31C1200146E156AD950010FD7
:1018B0004DD91450EE261550ED221200185E000E80
:1018C000195AF70E18C0DBFFF80E19C0DBFF18C05D
:1018D000E9FF19C0EAFF1200DBCFF4FFF350F45C1C
:1018E0001200DB50E76E040EE7CFDBFF12000A0E9A
:1018F000DBCF14F00B0EDBCF15F00C0EDBCF16F0A8
:101900000D0EDBCF17F01450151016101710120023
:10191000130EEECFDBFF140EEDCFDBFF130EDBCF8C
:1019200014F0140EDBCF15F00001800E1514120018
:10193000F70EDBCF18F0F80EDBCF19F01200050E12
:10194000DB50E66ED950130F01D9E552E750EE6E29
:10195000ED6A12000A0EDBCF06F00B0EDBCF07F0AC
:101960000C0EDBCF08F00D0EDBCF09F01200DBCF41
:10197000E6FF150EDBCFE6FF050EDB50E552E72450
:10198000E552E7241200DB50CED8010EF36E060EAE
:10199000F3CFDBFF1200EE50EFCFEAFFE96E16C087
:1019A000EEFF17C0EEFF18C0EEFF1200D9CFE6FF22
:1019B000DACFE6FFE1CFD9FFE2CFDAFF1200DFCFC7
:1019C000E6FFE66A0CEC18F0E552E552F35012001F
:1019D000E76E080EE7CFDBFF1200EECF14F0EECF7C
:1019E00015F0EFCF16F0176A1200050EDBCF14F0DA
:1019F000150EDB50D88014541200010EDBCF16F008
:101A0000020EDBCF17F0186A1200E552E5CFDAFFBD
:101A1000E7CFD9FF12000A0E14C0DBFF0B0E15C072
:101A2000DBFF1200D9500A0FA6EF0DF0F36E070E80
:101A3000F3CFDBFF1200EECF14F0EFCF15F0120062
:101A4000010EDB2A020E1200FC0EDBCFE6FFFD0EBC
:101A5000DBCFE6FF1200145E000E155AF70E14C01D
:101A6000DBFFF80E15C0DBFF14C0E9FF15C0EAFF6D
:101A70001200DA20EA6EEF2AEECFF6FF000EEF2218
:101A8000EECFF7FFEF22EECFF8FF1200040EDBCF10
:101A9000E6FF130EDB50E552E75C9ADFDB5004DF14
:101AA000060EDB501200090EDB500A0DF350DF2446
:101AB000D00FE76E090EE7CFDBFF3EEF0CF0DB50F7
:101AC000F36E050E6CEF0CF0F70EDBCF14F0F80E92
:101AD000DBCF15F01200DFCFE6FF48EF0CF028DF78
:101AE000030EECDEEDEF0CF09AEC07F0E552E55258
:101AF000E552E55200091200BDDEEE50EFCFEAFFDD
:101B0000E96E010E1200130EDB50F36E040E6CEF43
:101B10000CF0040EDB50F36E090E6CEF0CF0DBCF13
:101B2000E6FF48EF0CF0E76E050EE7CFDBFF120093
:101B30008BDF6BEF0DF0DBCFE6FF86DF74EF0DF090
:101B4000D950F90FE96EFF0E39EF0DF0E96E000E76
:061B5000DA20EA6E12002B
:0A1B5600D9CFE6FFE1CFD9FFFE0E64
:101B6000DB500F0B146EFE0EDB50F00BE83A0A0D43
:101B7000F350142400D0E552E7CFD9FF1200D9CF9B
:101B8000E6FFE1CFD9FF0A0E166E16C00EF0FE0E6C
:101B9000DBCF09F04AEC18F005C015F00A0E146E00
:101BA00014C00EF0FE0EDBCF09F04AEC18F0093835
:101BB000F00B151000D0E552E7CFD9FF1200D9CFB6
:101BC000E6FFE1CFD9FF030EE126020EDB6A79ECD6
:101BD00018F0C580C5B0FED7C5B0FED7D00EE66EF2
:101BE0002AEC17F0E552DE6EDD6AD9CFE9FFDACFD5
:101BF000EAFFEE50ED1006E0C584C5B4FED7C5B0CF
:101C0000FED733D079EC18F0FD0EDBCFE6FF2AECDF
:101C100017F0E552DE6EDD6AD9CFE9FFDACFEAFFD1
:101C2000EE50ED101DE1C582C5B2FED7C5B2FED79C
:101C300079EC18F0D10EE66E2AEC17F0E552DE6E64
:101C4000DD6AD9CFE9FFDACFEAFFEE50ED1008E107
:101C500079EC18F058EC18F0E76E020EE7CFDBFFD6
:101C6000C584C5B4FED7C5B0FED7020EDB50146ED6
:101C7000156A14C0F3FF15C0F4FF030EE15C03E224
:101C800000D0E16AE552E16EE552E7CFD9FF1200DC
:101C9000D9CFE6FFE1CFD9FF020EE12679EC18F0AB
:101CA000C580C5B0FED7C5B0FED779EC18F0D00E10
:101CB000E66E2AEC17F0E552DE6EDD6AD9CFE9FF59
:101CC000DACFEAFFEE50ED1006E0C584C5B4FED7CA
:101CD000C5B0FED71CD079EC18F0FD0EDBCFE6FFC7
:101CE0002AEC17F0E552DE6EDD6AD9CFE9FFDACFD4
:101CF000EAFFEE50ED1006E1FB0EDBCFE6FF2AEC2B
:101D000017F0E552C584C5B4FED7C5B0FED7D9CF0C
:101D1000E9FFDACFEAFFEE50ED1002E0000E01D04D
:101D2000010E146E156A14BE156814C0F3FF15C0B9
:101D3000F4FF020EE15C03E200D0E16AE552E16EDD
:101D4000E552E7CFD9FF1200D9CFE6FFE1CFD9FFA7
:101D5000060EE126DE6ADD6A020EDB6A030EDB6A2E
:101D6000040EDB6A050EDB6A110EE66EE66A27DFFB
:101D7000E552E552F3CFDEFFF4CFDDFF120EE66E43
:101D8000E66A1DDFE552E552020EF3CFDBFF030EDC
:101D9000F4CFDBFF020EDBCF16F0030EDBCF17F024
:101DA000060ED89017321632E804FBE1190E17021E
:101DB000F3CF17F01602F3CF16F0F4501726640E87
:101DC000086E096ADECF0DF0DDCF0EF045EC15F0A0
:101DD00006501624146E07501720156E0A0E0D6E4D
:101DE0000E6A14C008F015C009F0F6EC17F008C030
:101DF00014F009C015F0040E14C0DBFF050E15C069
:101E0000DBFF040EDBCF14F0050EDBCF15F014C0A2
:101E1000F3FF15C0F4FF060EE15C03E200D0E16AB7
:101E2000E552E16EE552E7CFD9FF1200D9CFE6FFC8
:101E3000E1CFD9FF140EE126120EDB6A130EDB6A26
:101E400079EC18F0C580C5B0FED7C5B0FED7D00E6E
:101E5000E66E2AEC17F0E552E66ED950100FE96EE7
:101E6000DACFEAFFE552E750EE6EED6AD950100F77
:101E7000E96EDACFEAFFEE50ED1006E0C584C5B496
:101E8000FED7C5B4FED75FD179EC18F0120EDBCFC8
:101E9000E6FF2AEC17F0E552C582C5B2FED7C5B2FF
:101EA000FED7D10EE66E2AEC17F0E552E66ED95059
:101EB000100FE96EDACFEAFFE552E750EE6EED6AF9
:101EC000D950100FE96EDACFEAFFEE50ED1006E0C0
:101ED000C584C5B4FED7C5B4FED735D179EC18F0AA
:101EE00058EC18F0DE6EDD6AC59AC588C5B8FED715
:101EF00058EC18F0E66ED950040FE96EDACFEAFF1D
:101F0000E552E750EE6EED6AC59AC588C5B8FED7B2
:101F100058EC18F0E66ED950060FE96EDACFEAFFFA
:101F2000E552E750EE6EED6AC59AC588C5B8FED792
:101F300058EC18F0E66ED950080FE96EDACFEAFFD8
:101F4000E552E750EE6EED6AC59AC588C5B8FED772
:101F500058EC18F0E66ED9500A0FE96EDACFEAFFB6
:101F6000E552E750EE6EED6AC59AC588C5B8FED752
:101F700058EC18F0E66ED9500C0FE96EDACFEAFF94
:101F8000E552E750EE6EED6AC59AC588C5B8FED732
:101F900058EC18F0E66ED9500E0FE96EDACFEAFF72
:101FA000E552E750EE6EED6AC58AC588C5B8FED722
:101FB000C584C5B4FED7C5B4FED7DFCFE6FFCBDD01
:101FC000E552E66ED950020FE96EDACFEAFFE5522C
:101FD000E750EE6EED6AFD0EDBCFE9FFFE0EDBCFC4
:101FE000EAFFEE52EF50146E156A020EDB50141821
:101FF00003E1030EDB50151801E1A5D0DFCFE6FFAA
:10200000AADDE552E66EFD0EDBCFE9FFFE0EDBCF6B
:10201000EAFFEE52E552E750EF6E040EDBCFE6FF2B
:102020009ADDE552E66EFD0EDBCFE9FFFE0EDBCF5B
:10203000EAFF020EE926000EEA22E552E750EF6EB3
:102040003F0EE76E060EDBCF14F0070EDBCF15F068
:10205000E7501416156A1450E66E7DDDE552E66E03
:10206000FD0EDBCFE9FFFE0EDBCFEAFF030EE92614
:10207000000EEA22E552E750EF6E070EE76E080EFB
:10208000DBCF14F0090EDBCF15F0E7501416156AFC
:10209000FD0EDBCFE9FFFE0EDBCFEAFF060EE926E1
:1020A000000EEA2214C0EFFF0A0EDBCFE6FF53DD7D
:1020B000E552E66EFD0EDBCFE9FFFE0EDBCFEAFF59
:1020C000040EE926000EEA22E552E750EF6E1F0EDD
:1020D000E76E0C0EDBCF14F00D0EDBCF15F0E750E2
:1020E0001416156A1450E66E36DDE552E66EFD0EE6
:1020F000DBCFE9FFFE0EDBCFEAFF050EE926000E7F
:10210000EA22E552E750EF6E0E0EDBCFE6FF23DD4D
:10211000E552E66EFD0EDBCFE9FFFE0EDBCFEAFFF8
:10212000070EE926000EEA22E552E750EF6EFD0E9B
:10213000DBCFE9FFFE0EDBCFEAFF080EE926000E3B
:10214000EA22010EEF6E140EE15C02E2E16AE55252
:10215000E16EE552E7CFD9FF1200D9CFE6FFE1CF1C
:10216000D9FF020EE126FD0EDBCFE9FFFE0EDBCF2D
:10217000EAFF070EE926000EEA22EF50E66EE66A55
:10218000FD0EDBCFE9FFFE0EDBCFEAFF050EE926F1
:10219000000EEA22EF50E66EE66AFD0EDBCFE9FFA5
:1021A000FE0EDBCFEAFF040EE926000EEA22EF5016
:1021B000E66EE66AFD0EDBCFE9FFFE0EDBCFEAFF3F
:1021C000060EE926000EEA22EF50E66EE66AFD0EE4
:1021D000DBCFE9FFFE0EDBCFEAFFEE52EF50E66EFB
:1021E000E66AFD0EDBCFE9FFFE0EDBCFEAFF020E53
:1021F000E926000EEA22EF50E66EE66AFD0EDBCF1E
:10220000E9FFFE0EDBCFEAFF030EE926000EEA220D
:10221000EF50E66EE66A7C0E146E290E156E166A95
:1022200014C0E6FF15C0E6FF16C0E6FF57EC16F037
:10223000176E110EE15E1750C580C5B0FED7D00EE7
:10224000E66E2AEC17F0E552DE6EDD6AD9CFE9FFC3
:10225000DACFEAFFEE50ED1004E0C584C5B4FED736
:1022600082D0E66A2AEC17F0E552FD0EDBCFE9FFDB
:10227000FE0EDBCFEAFFEE52EF50E66E80DCE55259
:10228000E66E2AEC17F0E552FD0EDBCFE9FFFE0EFD
:10229000DBCFEAFF020EE926000EEA22EF50E66EDF
:1022A0006EDCE552E66E2AEC17F0E552FD0EDBCF50
:1022B000E9FFFE0EDBCFEAFF030EE926000EEA225D
:1022C000EF50E66E5CDCE552E66E2AEC17F0E55264
:1022D000FD0EDBCFE9FFFE0EDBCFEAFF060EE9269F
:1022E000000EEA22EF50E66E4ADCE552E66E2AEC7A
:1022F00017F0E552FD0EDBCFE9FFFE0EDBCFEAFF64
:10230000040EE926000EEA22EF50E66E38DCE552B4
:10231000E66E2AEC17F0E552FD0EDBCFE9FFFE0E6C
:10232000DBCFEAFF050EE926000EEA22EF50E66E4B
:1023300026DCE552E66E2AEC17F0E552FD0EDBCF07
:10234000E9FFFE0EDBCFEAFF070EE926000EEA22C8
:10235000EF50E66E14DCE552E66E2AEC17F0E5521B
:10236000C584C5B4FED7020EE15C02E2E16AE55223
:10237000E16EE552E7CFD9FF120002010D6B0C6B45
:102380000B6B106B0E6B0F6B116B0A0EE66E020E71
:0A239000E66E4CDDE552E552120046
:06239A00D9CFE6FFE1CF00
:1023A000D9FFFE0EDB500F0B146EFE0EDB50F00B50
:1023B000E83A0A0DF350142400D0E552E7CFD9FFD4
:1023C0001200D9CFE6FFE1CFD9FFE00E0001E315FF
:1023D000E00BE838E840146E070EE415080DF350E2
:1023E0001410E66EDADFE552E66EFD0EDBCFE9FF94
:1023F000FE0EDBCFEAFFEE52E552E750EF6EE00E45
:102400000001E215E00BE838E840146E0F0EE3150A
:10241000080DF3501410E66EC0DFE552E66EFD0EB7
:10242000DBCFE9FFFE0EDBCFEAFFE552E750EF6EB0
:10243000F00E0001E415E8380F0B146E030EE515DD
:10244000100DF3501410E66EA8DFE552E66EFD0E97
:10245000DBCFE9FFFE0EDBCFEAFF030EE926000E1D
:10246000EA22E552E750EF6E1C0E0001E515E84048
:10247000E8403F0BE66E91DFE552E66EFD0EDBCFE6
:10248000E9FFFE0EDBCFEAFF020EE926000EEA228C
:10249000E552E750EF6EE00E0001E515E00BE8387D
:1024A000E840146E030EE615080DF3501410E66EA6
:1024B00074DFE552E66EFD0EDBCFE9FFFE0EDBCFEB
:1024C000EAFF040EE926000EEA22E552E750EF6E1D
:1024D000FC0E0001E615E840E8403F0B146E030EC9
:1024E000E715400DF3501410E66E57DFE552E66E27
:1024F000FD0EDBCFE9FFFE0EDBCFEAFF050EE9267E
:10250000000EEA22E552E750EF6E010E0001E115E0
:10251000E66EFD0EDBCFE9FFFE0EDBCFEAFF070E16
:10252000E926000EEA22E552E750EF6E010EE215B1
:10253000E66EFD0EDBCFE9FFFE0EDBCFEAFF080EF5
:10254000E926000EEA22E552E750EF6E080EE2158A
:10255000E840E840E8401F0BE66EFD0EDBCFE9FFE8
:10256000FE0EDBCFEAFF090EE926000EEA22E55255
:10257000E750EF6E060EE215E8407F0BE66EFD0EAB
:10258000DBCFE9FFFE0EDBCFEAFF060EE926000EE9
:10259000EA22E552E750EF6E3B0E0201155D61E164
:1025A000010E0001E0155DE1100EE2155AE0FD0E8E
:1025B000DBCFE9FFFE0EDBCFEAFF050EE926000EBA
:1025C000EA22EF50E66EE66AFD0EDBCFE9FFFE0E73
:1025D000DBCFEAFF040EE926000EEA22EF50E66E9A
:1025E000E66AFD0EDBCFE9FFFE0EDBCFEAFF030E4E
:1025F000E926000EEA22EF50E66EE66AFD0EDBCF1A
:10260000E9FFFE0EDBCFEAFF020EE926000EEA220A
:10261000EF50E66EE66AFD0EDBCFE9FFFE0EDBCF84
:10262000EAFFEF50E66EE66AFD0EDBCFE9FFFE0E35
:10263000DBCFEAFFEE52EF50E66EE66AF90E146E5B
:10264000290E156E166A14C0E6FF15C0E6FF16C007
:10265000E6FF57EC16F0176E0F0EE15E1750010EF5
:102660005AD0FD0EDBCFE9FFFE0EDBCFEAFF050EF1
:10267000E926000EEA22EF50E66EE66AFD0EDBCF99
:10268000E9FFFE0EDBCFEAFF040EE926000EEA2288
:10269000EF50E66EE66AFD0EDBCFE9FFFE0EDBCF04
:1026A000EAFF030EE926000EEA22EF50E66EE66A24
:1026B000FD0EDBCFE9FFFE0EDBCFEAFF020EE926BF
:1026C000000EEA22EF50E66EE66AFD0EDBCFE9FF70
:1026D000FE0EDBCFEAFFEF50E66EE66AFD0EDBCFC3
:1026E000E9FFFE0EDBCFEAFFEE52EF50E66EE66A40
:1026F000CF0E146E290E156E166A14C0E6FF15C0B3
:10270000E6FF16C0E6FF57EC16F0176E0F0EE15EFF
:102710001750000E00D0E552E7CFD9FF120002019A
:102720001951E66EE66A1651E66EE66A1551E66ED6
:10273000E66AAC0E146E290E156E166A14C0E6FF1A
:1027400015C0E6FF16C0E6FF57EC16F0176E090E2F
:10275000E15E1750020116510FE0F20EE66E000E18
:10276000E66E2FDEE552E552000903E00201010E9C
:10277000186F0201166B11D0E80EE66E000EE66EC1
:1027800020DEE552E552000906E00201010E166F57
:10279000020E196F02D00201196B156B080EE66E5E
:1027A000E66AE66AE00EE66E000EE66EBBEC15F039
:1027B000146E050EE15E145012000001020EA619FF
:1027C00001E1A75101E1828202010A0ED88013556E
:1027D000000E14550AE2F00ED8801355000E145561
:1027E00002E2010E176F136B146B12000001020E50
:1027F000A61901E1A75101E182920201000ED880E1
:102800001355000E145546E2175142E13B0E155D7B
:1028100039E21E0ED8801355000E145519E21551D9
:10282000070B156E010E155204E0E846FE0B150667
:10283000FCE1146E02011551F80BE842E842E8424F
:10284000EA6AE00FE96E000EEA221450EF1219D086
:102850001551070B156E010E155204E0E846FE0BEC
:102860001506FCE1E81C146E02011551F80BE84254
:10287000E842E842EA6AE00FE96E000EEA221450EC
:10288000EF1601D0156B152B195102E1010E196FCE
:06289000136B146B120033
:0A2896004465627567206D6F64658C
:1028A0002064697361626C65640D0A004465627539
:1028B00067206D6F646520656E61626C65640D0AEA
:1028C00000526F746174696E67206D6F6465207368
:1028D000657420746F206D616E75616C0D0A005215
:1028E0006F746174696E67206D6F646520736574C1
:1028F00020746F206175746F0D0A000D0A42757A9D
:102900007A204E756D6974726F6E20436C6F636BC5
:1029100020762E310D0A00484F5552202564204D57
:10292000494E2025640D0A00574F524B4D4F4445E8
:102930002025640D0A0055500D0A005345540D0A18
:1029400000425245414B20004D414B45200056610D
:102950006C69642054696D653A20253032753A25DA
:102960003032752020202025752C20253032752E00
:10297000253032752E253032750D0A0052544353DE
:10298000657454696D653A20253032753A253032C8
:10299000753A253032752025752C20253032752E5C
:1029A000253032752E253032750D0A004465636F6F
:1029B00064696E672054696D65206E3A25752073D1
:1029C00065713A2575207374613A25750D0A0020EA
:1029D000253032753A253032752025752C2025306A
:1029E00032752E253032752E253032752028496EED
:1029F00076616C6964290D0A0020253032753A250C
:102A00003032752025752C20253032752E25303238
:102A1000752E25303275202856616C6964290D0A9F
:012A200000B5
:0E2A2200006AE86A0EAE1EEF15F00B6C0C1E7B
:102A30000D1E0E1E0C220D220E22001E09AE29EFC5
:102A400015F0066C071E081E091E0722082209221F
:102A5000001E9BEC17F009BE40EF15F000AE000C15
:102A6000066C071E081E091EE86A072208220922B2
:102A7000026C031E041E051E032204220522000C04
:102A800000BE30EF15F00188FF0C08C012F00850AE
:102A90000D02F4CF07F0F3CF06F009500E02F4CF89
:102AA00009F0F3CF08F00D02F3500726F450082286
:102AB000E86A092212500E02F3500726F450082249
:102AC000E86A0922000C09C013F008C012F008508F
:102AD0000D02F4CF07F0F3CF06F009500E02F4CF49
:102AE00009F0F3CF08F00D02F3500726F450082246
:102AF000E86A092212500E02F3500726F450082209
:102B0000E86A09220EAE89EF15F01250085E1350E4
:102B1000095A13AE000C0D50085E0E50095A000CF5
:102B2000D9CFE6FFDACFE6FFFA0EE3CFD9FFFB0EEF
:102B3000E3CFDAFFFC0EE3CFE9FFFD0EE3CFEAFFC0
:102B4000E9CFF3FFEACFF4FFF80EE35003E1F90E0B
:102B5000E35008E0F80EE30602E2F90EE306DECFEA
:102B6000EEFFF2D7FF0EE3CFDAFFE552FF0EE3CF21
:102B7000D9FFE5521200FE0EE3CFE9FFFF0EE3CFCF
:102B8000EAFFE9CFF3FFEACFF4FFFB0EE35003E1E6
:102B9000FC0EE35009E0FB0EE30602E2FC0EE30646
:102BA000FD0EE350EE6EF1D71200FE0EE3CFE9FF0B
:102BB000FF0EE3CFEAFFF36AF46AEE5203E0F34A52
:102BC000F42AFBD71200FF0EE3CFF8FFE552FF0E09
:102BD000E3CFF7FFE552FF0EE3CFF6FFE552E66ADB
:102BE000E66AE66A0900F55209E0FD0EE32A05E10E
:102BF000FE0EE32A02E1FF0EE32AF4D7FD0EE3CF37
:102C000007F0FE0EE3CF08F0FF0EE3CF09F012004D
:102C10001E0EF66E000EF76E000EF86E0201090031
:102C2000F550056F0900F550066F03E1056701D007
:102C30003DD00900F550006F0900F550016F090003
:102C4000F550026F09000900F550E96E0900F550D2
:102C5000EA6E090009000900F550036F0900F550FC
:102C6000046F09000900F6CF07F2F7CF08F2F8CF9A
:102C700009F200C2F6FF01C2F7FF02C2F8FF02012B
:102C8000035302E1045307E00900F550EE6E030719
:102C9000F8E20407F9D707C2F6FF08C2F7FF09C236
:0E2CA000F8FF02010507000E065BBFD7120009
:022CAE00D9CF7C
:102CB000E6FFDACFE6FFE1CFD9FFE2CFDAFFE65257
:102CC000E652E652E652D950FB0F146EFF0EDA20A0
:102CD000156E14C0DEFFDD6EDECFE6FFDDCFE6FF52
:102CE000FB0EDBCFE6FFFC0EDBCFE6FFFD0EDBCFFE
:102CF000E6FFFCC0E6FFFDC0E6FFB0EC07F0146E97
:102D0000070EE15C02E2E16AE552E16E1450020E48
:102D1000F3CFDBFF030EF4CFDBFF020EDBCF14F0AB
:102D2000030EDBCF15F014C0F3FF15C0F4FF040E43
:102D3000E15C02E2E16AE552E16EE552E5CFDAFFDD
:062D4000E7CFD9FF1200ED
:0A2D4600D9CFE6FFDACFE6FFE1CFB8
:102D5000D9FFE2CFDAFFAC6AAB6AFD0EDBB0AC881C
:102D6000DBA202D0AC8CAB8CDBB4AC8EDBA602D089
:102D7000AB8801D0AB8ADBB8AC849E98DBBAAB865B
:102D8000DBAC02D09D8A01D09D9A9E9ADBAE02D028
:102D90009D8801D09D98FB0EDB50AF6EFB0EFC0EA4
:102DA000DBCF15F015C014F0156A1450B06EAC8A64
:102DB000AB8E939E938AAC50100B04E0AC50800B0A
:102DC00001E1938EE552E5CFDAFFE7CFD9FF12009C
:102DD000D9CFE6FFDACFE6FFE1CFD9FFE2CFDAFFC6
:102DE000FB0EDBCF14F0FC0EDBCF15F00001800EE4
:102DF00015141AE1FB0EDBCFE9FFFC0EDBCFEAFF77
:102E0000EECFF3FFEDCFF4FFEE2A000EEF22F3CF6B
:102E1000E9FFF4CFEAFFFD0EDBCFEFFFEF50156ABD
:102E2000F36E15C0F4FF10D0FB0EDB50FE0806E178
:102E3000FD0EDBCFE6FF3CEC18F005D0FD0EDBCF3E
:102E4000E6FF03EC00F0E552E552E5CFDAFFE7CF0D
:042E5000D9FF120094
:0C2E5400D9CFE6FFDACFE6FFE1CFD9FFCF
:102E6000E2CFDAFFFD0EDB50C96EC6AE02D0FF0E18
:102E700024D00F0EC61408080FE00F0EC6140B085E
:102E80000BE0C6889EA6FED7C750040B03E1C750CF
:102E9000010B10E0000E11D00F0EC614080804E05C
:102EA0000F0EC6140B0809E1C7B0FED779EC18F075
:102EB000C5AC02D0FE0E01D0000EE552E5CFDAFF20
:062EC000E7CFD9FF12006C
:0A2EC60006500B02F3CF02F0F4CF28
:102ED00003F00C02F3500326000EF420046E06509B
:102EE0000D02F3500426000EF420056E06500E026B
:102EF000F350052607500B02F3500326F45004222A
:102F0000000E052207500C02F3500426F45005224F
:102F100007500D02F350052608500B02F35004260B
:102F2000F450052208500C02F350052609500B02FC
:062F3000F350052612001B
:0A2F3600056A046A036A026A200EAD
:102F4000E76ED8900636073608360936023603365D
:102F5000043605360B50025C0C5003580D500458D3
:102F60000E50055809E30B50025E0C50035A0D50E9
:0E2F7000045A0E50055A062AE72EE4D7120026
:022F7E00D9CFA9
:102F8000E6FFDACFE6FFE1CFD9FFE2CFDAFFFD0EB1
:102F9000DB507F0BD56ED76AD66AF294FD0EDBAE9E
:102FA00002D0F28A01D0F29AD58EE552E5CFDAFF4F
:062FB000E7CFD9FF12007B
:0A2FB600D9CFE6FFDACFE6FFE1CF46
:102FC000D9FFE2CFDAFF3F0EC716C66AC56AFD0E0B
:102FD000DB50C612FC0EDB50C712938C9388C68A56
:0C2FE000E552E5CFDAFFE7CFD9FF120081
:042FEC00056A046A04
:102FF000100EE76ED89008360936043605360D50A7
:10300000045C0E50055805E30D50045E0E50055A41
:08301000082AE72EF0D7120098
:08301800F36AF46AFF0EE124E3
:10302000E96EFF0EE220EA6EED6607D02F0EEF6428
:0C30300004D03A0EEF6001D0F32A120029
:04303C00000EF36E21
:1030400000EE00F0030E01D81200EA6002D0EE6A32
:0C305000FCD7F350E9601200EE6AFCD7D8
:04305C0011EE00F081
:1030600021EE00F0F86A019C08EC16F007EC00F085
:08307000C0EC05F0FBD71200D3
:08307800FF0EE350ACBA04D0D6
:10308000AF6AAB8EAC8A949CACA2FED7AD6EF36EE9
:04309000F46A1200CC
:0C309400056A080EE76ED8900936053674
:1030A0000E50055C02E3056E092AE72EF7D71200E1
:1030B0000F0EC614080804E00F0EC6140B0801E139
:0A30C000C586C7A0FED7C950120054
:0630CA00FF0EE350E84E8A
:1030D0001200000000D000D000D0E82EFAD7120075
:1030E000303132333435363738396162636465667E
:0130F00000DF
:0E30F2001F0EC514FDE1C750040BFAE11200D9
:103100000200000000000000000000000005326422
:10311000000000000000FF003F0006005B004F00C1
:1031200066006D007D0007007F006F0077007C0067
:0A31300039005E0079007100000014
:06313A000000000000008F
:01314000008E
:020000040030CA
:0100000000FF
:0100010028D6
:0100020039C4
:010003001EDE
:010005008872
:010006008178
:00000001FF
